{
    "_format": "hh3-artifact-1",
    "contractName": "StakingContract",
    "sourceName": "contracts/StakingContract.sol",
    "abi": [
        {
            "inputs": [],
            "stateMutability": "nonpayable",
            "type": "constructor"
        },
        {
            "inputs": [
                {
                    "internalType": "address",
                    "name": "target",
                    "type": "address"
                }
            ],
            "name": "AddressEmptyCode",
            "type": "error"
        },
        {
            "inputs": [
                {
                    "internalType": "address",
                    "name": "implementation",
                    "type": "address"
                }
            ],
            "name": "ERC1967InvalidImplementation",
            "type": "error"
        },
        {
            "inputs": [],
            "name": "ERC1967NonPayable",
            "type": "error"
        },
        {
            "inputs": [],
            "name": "EnforcedPause",
            "type": "error"
        },
        {
            "inputs": [],
            "name": "ExpectedPause",
            "type": "error"
        },
        {
            "inputs": [],
            "name": "FailedCall",
            "type": "error"
        },
        {
            "inputs": [],
            "name": "InvalidInitialization",
            "type": "error"
        },
        {
            "inputs": [],
            "name": "NotInitializing",
            "type": "error"
        },
        {
            "inputs": [
                {
                    "internalType": "address",
                    "name": "owner",
                    "type": "address"
                }
            ],
            "name": "OwnableInvalidOwner",
            "type": "error"
        },
        {
            "inputs": [
                {
                    "internalType": "address",
                    "name": "account",
                    "type": "address"
                }
            ],
            "name": "OwnableUnauthorizedAccount",
            "type": "error"
        },
        {
            "inputs": [],
            "name": "ReentrancyGuardReentrantCall",
            "type": "error"
        },
        {
            "inputs": [
                {
                    "internalType": "address",
                    "name": "token",
                    "type": "address"
                }
            ],
            "name": "SafeERC20FailedOperation",
            "type": "error"
        },
        {
            "inputs": [],
            "name": "UUPSUnauthorizedCallContext",
            "type": "error"
        },
        {
            "inputs": [
                {
                    "internalType": "bytes32",
                    "name": "slot",
                    "type": "bytes32"
                }
            ],
            "name": "UUPSUnsupportedProxiableUUID",
            "type": "error"
        },
        {
            "anonymous": false,
            "inputs": [
                {
                    "indexed": false,
                    "internalType": "uint64",
                    "name": "version",
                    "type": "uint64"
                }
            ],
            "name": "Initialized",
            "type": "event"
        },
        {
            "anonymous": false,
            "inputs": [
                {
                    "indexed": true,
                    "internalType": "address",
                    "name": "previousOwner",
                    "type": "address"
                },
                {
                    "indexed": true,
                    "internalType": "address",
                    "name": "newOwner",
                    "type": "address"
                }
            ],
            "name": "OwnershipTransferred",
            "type": "event"
        },
        {
            "anonymous": false,
            "inputs": [
                {
                    "indexed": false,
                    "internalType": "address",
                    "name": "account",
                    "type": "address"
                }
            ],
            "name": "Paused",
            "type": "event"
        },
        {
            "anonymous": false,
            "inputs": [
                {
                    "indexed": true,
                    "internalType": "uint256",
                    "name": "planId",
                    "type": "uint256"
                },
                {
                    "indexed": false,
                    "internalType": "uint256",
                    "name": "period",
                    "type": "uint256"
                },
                {
                    "indexed": false,
                    "internalType": "uint256",
                    "name": "apr",
                    "type": "uint256"
                },
                {
                    "indexed": false,
                    "internalType": "uint256",
                    "name": "penalty",
                    "type": "uint256"
                }
            ],
            "name": "PlanAdded",
            "type": "event"
        },
        {
            "anonymous": false,
            "inputs": [
                {
                    "indexed": true,
                    "internalType": "uint256",
                    "name": "planId",
                    "type": "uint256"
                },
                {
                    "indexed": false,
                    "internalType": "uint256",
                    "name": "period",
                    "type": "uint256"
                },
                {
                    "indexed": false,
                    "internalType": "uint256",
                    "name": "apr",
                    "type": "uint256"
                },
                {
                    "indexed": false,
                    "internalType": "uint256",
                    "name": "penalty",
                    "type": "uint256"
                }
            ],
            "name": "PlanUpdated",
            "type": "event"
        },
        {
            "anonymous": false,
            "inputs": [
                {
                    "indexed": true,
                    "internalType": "uint256",
                    "name": "stakeId",
                    "type": "uint256"
                },
                {
                    "indexed": true,
                    "internalType": "address",
                    "name": "staker",
                    "type": "address"
                },
                {
                    "indexed": true,
                    "internalType": "uint256",
                    "name": "planId",
                    "type": "uint256"
                },
                {
                    "indexed": false,
                    "internalType": "uint256",
                    "name": "amount",
                    "type": "uint256"
                },
                {
                    "indexed": false,
                    "internalType": "uint256",
                    "name": "apr",
                    "type": "uint256"
                },
                {
                    "indexed": false,
                    "internalType": "uint256",
                    "name": "penalty",
                    "type": "uint256"
                }
            ],
            "name": "StakeCreated",
            "type": "event"
        },
        {
            "anonymous": false,
            "inputs": [
                {
                    "indexed": false,
                    "internalType": "address",
                    "name": "account",
                    "type": "address"
                }
            ],
            "name": "Unpaused",
            "type": "event"
        },
        {
            "anonymous": false,
            "inputs": [
                {
                    "indexed": true,
                    "internalType": "uint256",
                    "name": "stakeId",
                    "type": "uint256"
                },
                {
                    "indexed": true,
                    "internalType": "address",
                    "name": "staker",
                    "type": "address"
                },
                {
                    "indexed": false,
                    "internalType": "uint256",
                    "name": "amount",
                    "type": "uint256"
                },
                {
                    "indexed": false,
                    "internalType": "uint256",
                    "name": "reward",
                    "type": "uint256"
                }
            ],
            "name": "Unstaked",
            "type": "event"
        },
        {
            "anonymous": false,
            "inputs": [
                {
                    "indexed": true,
                    "internalType": "address",
                    "name": "implementation",
                    "type": "address"
                }
            ],
            "name": "Upgraded",
            "type": "event"
        },
        {
            "inputs": [],
            "name": "UPGRADE_INTERFACE_VERSION",
            "outputs": [
                {
                    "internalType": "string",
                    "name": "",
                    "type": "string"
                }
            ],
            "stateMutability": "view",
            "type": "function"
        },
        {
            "inputs": [
                {
                    "internalType": "uint256",
                    "name": "_days",
                    "type": "uint256"
                },
                {
                    "internalType": "uint256",
                    "name": "_apr",
                    "type": "uint256"
                },
                {
                    "internalType": "uint256",
                    "name": "_penalty",
                    "type": "uint256"
                }
            ],
            "name": "addPlan",
            "outputs": [],
            "stateMutability": "nonpayable",
            "type": "function"
        },
        {
            "inputs": [
                {
                    "internalType": "uint256",
                    "name": "_planId",
                    "type": "uint256"
                },
                {
                    "internalType": "uint256",
                    "name": "_amount",
                    "type": "uint256"
                }
            ],
            "name": "createStake",
            "outputs": [],
            "stateMutability": "nonpayable",
            "type": "function"
        },
        {
            "inputs": [
                {
                    "internalType": "uint256",
                    "name": "_amount",
                    "type": "uint256"
                }
            ],
            "name": "depositRewards",
            "outputs": [],
            "stateMutability": "nonpayable",
            "type": "function"
        },
        {
            "inputs": [
                {
                    "internalType": "uint256",
                    "name": "_planId",
                    "type": "uint256"
                }
            ],
            "name": "getPlan",
            "outputs": [
                {
                    "components": [
                        {
                            "internalType": "uint256",
                            "name": "period",
                            "type": "uint256"
                        },
                        {
                            "internalType": "uint256",
                            "name": "apr",
                            "type": "uint256"
                        },
                        {
                            "internalType": "uint256",
                            "name": "penalty",
                            "type": "uint256"
                        }
                    ],
                    "internalType": "struct StakingContract.Plan",
                    "name": "",
                    "type": "tuple"
                }
            ],
            "stateMutability": "view",
            "type": "function"
        },
        {
            "inputs": [
                {
                    "internalType": "uint256",
                    "name": "_stakeId",
                    "type": "uint256"
                }
            ],
            "name": "getStake",
            "outputs": [
                {
                    "components": [
                        {
                            "internalType": "uint256",
                            "name": "planId",
                            "type": "uint256"
                        },
                        {
                            "internalType": "uint256",
                            "name": "amount",
                            "type": "uint256"
                        },
                        {
                            "internalType": "uint256",
                            "name": "apr",
                            "type": "uint256"
                        },
                        {
                            "internalType": "uint256",
                            "name": "penalty",
                            "type": "uint256"
                        },
                        {
                            "internalType": "uint256",
                            "name": "startTime",
                            "type": "uint256"
                        },
                        {
                            "internalType": "uint256",
                            "name": "endTime",
                            "type": "uint256"
                        },
                        {
                            "internalType": "address",
                            "name": "staker",
                            "type": "address"
                        }
                    ],
                    "internalType": "struct StakingContract.Stake",
                    "name": "",
                    "type": "tuple"
                }
            ],
            "stateMutability": "view",
            "type": "function"
        },
        {
            "inputs": [
                {
                    "internalType": "address",
                    "name": "_user",
                    "type": "address"
                }
            ],
            "name": "getStakeCountByUser",
            "outputs": [
                {
                    "internalType": "uint256",
                    "name": "",
                    "type": "uint256"
                }
            ],
            "stateMutability": "view",
            "type": "function"
        },
        {
            "inputs": [
                {
                    "internalType": "address",
                    "name": "_user",
                    "type": "address"
                }
            ],
            "name": "getStakeIdsByUser",
            "outputs": [
                {
                    "internalType": "uint256[]",
                    "name": "",
                    "type": "uint256[]"
                }
            ],
            "stateMutability": "view",
            "type": "function"
        },
        {
            "inputs": [
                {
                    "internalType": "address",
                    "name": "_user",
                    "type": "address"
                }
            ],
            "name": "getStakesByUser",
            "outputs": [
                {
                    "components": [
                        {
                            "internalType": "uint256",
                            "name": "planId",
                            "type": "uint256"
                        },
                        {
                            "internalType": "uint256",
                            "name": "amount",
                            "type": "uint256"
                        },
                        {
                            "internalType": "uint256",
                            "name": "apr",
                            "type": "uint256"
                        },
                        {
                            "internalType": "uint256",
                            "name": "penalty",
                            "type": "uint256"
                        },
                        {
                            "internalType": "uint256",
                            "name": "startTime",
                            "type": "uint256"
                        },
                        {
                            "internalType": "uint256",
                            "name": "endTime",
                            "type": "uint256"
                        },
                        {
                            "internalType": "address",
                            "name": "staker",
                            "type": "address"
                        }
                    ],
                    "internalType": "struct StakingContract.Stake[]",
                    "name": "",
                    "type": "tuple[]"
                }
            ],
            "stateMutability": "view",
            "type": "function"
        },
        {
            "inputs": [],
            "name": "implementation",
            "outputs": [
                {
                    "internalType": "address",
                    "name": "",
                    "type": "address"
                }
            ],
            "stateMutability": "view",
            "type": "function"
        },
        {
            "inputs": [
                {
                    "internalType": "address",
                    "name": "_stakingToken",
                    "type": "address"
                },
                {
                    "internalType": "address",
                    "name": "initialOwner",
                    "type": "address"
                }
            ],
            "name": "initialize",
            "outputs": [],
            "stateMutability": "nonpayable",
            "type": "function"
        },
        {
            "inputs": [],
            "name": "owner",
            "outputs": [
                {
                    "internalType": "address",
                    "name": "",
                    "type": "address"
                }
            ],
            "stateMutability": "view",
            "type": "function"
        },
        {
            "inputs": [],
            "name": "pause",
            "outputs": [],
            "stateMutability": "nonpayable",
            "type": "function"
        },
        {
            "inputs": [],
            "name": "paused",
            "outputs": [
                {
                    "internalType": "bool",
                    "name": "",
                    "type": "bool"
                }
            ],
            "stateMutability": "view",
            "type": "function"
        },
        {
            "inputs": [
                {
                    "internalType": "uint256",
                    "name": "_stakeId",
                    "type": "uint256"
                }
            ],
            "name": "pendingReward",
            "outputs": [
                {
                    "internalType": "uint256",
                    "name": "",
                    "type": "uint256"
                }
            ],
            "stateMutability": "view",
            "type": "function"
        },
        {
            "inputs": [],
            "name": "proxiableUUID",
            "outputs": [
                {
                    "internalType": "bytes32",
                    "name": "",
                    "type": "bytes32"
                }
            ],
            "stateMutability": "view",
            "type": "function"
        },
        {
            "inputs": [],
            "name": "renounceOwnership",
            "outputs": [],
            "stateMutability": "nonpayable",
            "type": "function"
        },
        {
            "inputs": [],
            "name": "stakingToken",
            "outputs": [
                {
                    "internalType": "contract IERC20",
                    "name": "",
                    "type": "address"
                }
            ],
            "stateMutability": "view",
            "type": "function"
        },
        {
            "inputs": [
                {
                    "internalType": "address",
                    "name": "newOwner",
                    "type": "address"
                }
            ],
            "name": "transferOwnership",
            "outputs": [],
            "stateMutability": "nonpayable",
            "type": "function"
        },
        {
            "inputs": [],
            "name": "unpause",
            "outputs": [],
            "stateMutability": "nonpayable",
            "type": "function"
        },
        {
            "inputs": [
                {
                    "internalType": "uint256",
                    "name": "_stakeId",
                    "type": "uint256"
                }
            ],
            "name": "unstake",
            "outputs": [],
            "stateMutability": "nonpayable",
            "type": "function"
        },
        {
            "inputs": [
                {
                    "internalType": "uint256",
                    "name": "_planId",
                    "type": "uint256"
                },
                {
                    "internalType": "uint256",
                    "name": "_days",
                    "type": "uint256"
                },
                {
                    "internalType": "uint256",
                    "name": "_apr",
                    "type": "uint256"
                },
                {
                    "internalType": "uint256",
                    "name": "_penalty",
                    "type": "uint256"
                }
            ],
            "name": "updatePlan",
            "outputs": [],
            "stateMutability": "nonpayable",
            "type": "function"
        },
        {
            "inputs": [
                {
                    "internalType": "address",
                    "name": "newImplementation",
                    "type": "address"
                },
                {
                    "internalType": "bytes",
                    "name": "data",
                    "type": "bytes"
                }
            ],
            "name": "upgradeToAndCall",
            "outputs": [],
            "stateMutability": "payable",
            "type": "function"
        },
        {
            "inputs": [
                {
                    "internalType": "uint256",
                    "name": "_totalStaked",
                    "type": "uint256"
                },
                {
                    "internalType": "uint256",
                    "name": "_totalStakers",
                    "type": "uint256"
                },
                {
                    "internalType": "uint256",
                    "name": "_rewardPool",
                    "type": "uint256"
                },
                {
                    "internalType": "address[]",
                    "name": "_preUpgradeStakers",
                    "type": "address[]"
                }
            ],
            "name": "initStats",
            "outputs": [],
            "stateMutability": "nonpayable",
            "type": "function"
        }
    ],
    "bytecode": "0x60a06040523073ffffffffffffffffffffffffffffffffffffffff1660809073ffffffffffffffffffffffffffffffffffffffff16815250348015610042575f5ffd5b50600161006161005661007a60201b60201c565b6100a360201b60201c565b5f01819055506100756100ac60201b60201c565b610227565b5f7f9b779b17422d0df92223018b32b4d1fa46e071723d6817e2486d003becc55f005f1b905090565b5f819050919050565b5f6100bb6101aa60201b60201c565b9050805f0160089054906101000a900460ff1615610105576040517ff92ee8a900000000000000000000000000000000000000000000000000000000815260040160405180910390fd5b67ffffffffffffffff8016815f015f9054906101000a900467ffffffffffffffff1667ffffffffffffffff16146101a75767ffffffffffffffff815f015f6101000a81548167ffffffffffffffff021916908367ffffffffffffffff1602179055507fc7f505b2f371ae2175ee4913f4499e1f2633a7b5936321eed1cdaeb6115181d267ffffffffffffffff60405161019e919061020e565b60405180910390a15b50565b5f5f6101ba6101c360201b60201c565b90508091505090565b5f7ff0c57e16840df040f15088dc2f81fe391c3923bec73e23a9662efc9c229c6a005f1b905090565b5f67ffffffffffffffff82169050919050565b610208816101ec565b82525050565b5f6020820190506102215f8301846101ff565b92915050565b60805161350e61024d5f395f8181611bba01528181611c0f0152611dc9015261350e5ff3fe60806040526004361061013f575f3560e01c806372f702f3116100b55780639fe9b5771161006e5780639fe9b577146103ef578063ad3cb1cc1461042b578063c0d8fd3f14610455578063ce325bf814610491578063d7fa023d146104cd578063f2fde38b146104f55761013f565b806372f702f31461030d578063790554de146103375780638456cb591461035f5780638bdf67f2146103755780638da5cb5b1461039d578063905d6a46146103c75761013f565b8063485cc95511610107578063485cc955146102355780634f1ef2861461025d57806352d1902d146102795780635c60da1b146102a35780635c975abb146102cd578063715018a6146102f75761013f565b806312d09d821461014357806312f7086c1461017f57806326cd5274146101bb5780632e17de78146101f75780633f4ba83a1461021f575b5f5ffd5b34801561014e575f5ffd5b5061016960048036038101906101649190612681565b61051d565b60405161017691906126c4565b60405180910390f35b34801561018a575f5ffd5b506101a560048036038101906101a09190612707565b610566565b6040516101b291906126c4565b60405180910390f35b3480156101c6575f5ffd5b506101e160048036038101906101dc9190612707565b6106d4565b6040516101ee9190612781565b60405180910390f35b348015610202575f5ffd5b5061021d60048036038101906102189190612707565b610760565b005b34801561022a575f5ffd5b50610233610a46565b005b348015610240575f5ffd5b5061025b6004803603810190610256919061279a565b610a60565b005b61027760048036038101906102729190612914565b610c97565b005b348015610284575f5ffd5b5061028d610cb6565b60405161029a9190612986565b60405180910390f35b3480156102ae575f5ffd5b506102b7610ce7565b6040516102c491906129ae565b60405180910390f35b3480156102d8575f5ffd5b506102e1610cf5565b6040516102ee91906129e1565b60405180910390f35b348015610302575f5ffd5b5061030b610d17565b005b348015610318575f5ffd5b50610321610d2a565b60405161032e9190612a55565b60405180910390f35b348015610342575f5ffd5b5061035d60048036038101906103589190612a6e565b610d4e565b005b34801561036a575f5ffd5b50610373610eef565b005b348015610380575f5ffd5b5061039b60048036038101906103969190612707565b610f01565b005b3480156103a8575f5ffd5b506103b1610f9b565b6040516103be91906129ae565b60405180910390f35b3480156103d2575f5ffd5b506103ed60048036038101906103e89190612ad2565b610fd0565b005b3480156103fa575f5ffd5b5061041560048036038101906104109190612681565b611162565b6040516104229190612bca565b60405180910390f35b348015610436575f5ffd5b5061043f6111f5565b60405161044c9190612c4a565b60405180910390f35b348015610460575f5ffd5b5061047b60048036038101906104769190612681565b61122e565b6040516104889190612dad565b60405180910390f35b34801561049c575f5ffd5b506104b760048036038101906104b29190612707565b6113d8565b6040516104c49190612e59565b60405180910390f35b3480156104d8575f5ffd5b506104f360048036038101906104ee9190612e72565b61150a565b005b348015610500575f5ffd5b5061051b60048036038101906105169190612681565b611805565b005b5f60055f8373ffffffffffffffffffffffffffffffffffffffff1673ffffffffffffffffffffffffffffffffffffffff1681526020019081526020015f20805490509050919050565b5f5f60035f8481526020019081526020015f2090505f73ffffffffffffffffffffffffffffffffffffffff16816006015f9054906101000a900473ffffffffffffffffffffffffffffffffffffffff1673ffffffffffffffffffffffffffffffffffffffff160361060c576040517f08c379a000000000000000000000000000000000000000000000000000000000815260040161060390612efa565b60405180910390fd5b5f81600501544210610622578160050154610624565b425b90505f82600401548211610638575f610649565b8260040154826106489190612f45565b5b90505f6301e13380606461065d9190612f78565b82856002015486600101546106729190612f78565b61067c9190612f78565b6106869190612fe6565b905083600501544210156106c7576064846003015460646106a79190612f45565b826106b29190612f78565b6106bc9190612fe6565b9450505050506106cf565b809450505050505b919050565b6106dc6125ac565b6002548210610720576040517f08c379a000000000000000000000000000000000000000000000000000000000815260040161071790613060565b60405180910390fd5b60015f8381526020019081526020015f206040518060600160405290815f8201548152602001600182015481526020016002820154815250509050919050565b610768611889565b6107706118ca565b5f60035f8381526020019081526020015f2090503373ffffffffffffffffffffffffffffffffffffffff16816006015f9054906101000a900473ffffffffffffffffffffffffffffffffffffffff1673ffffffffffffffffffffffffffffffffffffffff1614610815576040517f08c379a000000000000000000000000000000000000000000000000000000000815260040161080c906130c8565b60405180910390fd5b5f8160050154421061082b57816005015461082d565b425b90505f82600401548211610841575f610852565b8260040154826108519190612f45565b5b90505f6301e1338060646108669190612f78565b828560020154866001015461087b9190612f78565b6108859190612f78565b61088f9190612fe6565b90505f84600501544210156108cd576064856003015460646108b19190612f45565b836108bc9190612f78565b6108c69190612fe6565b90506108d1565b8190505b5f856001015490506108e333886118ec565b60035f8881526020019081526020015f205f5f82015f9055600182015f9055600282015f9055600382015f9055600482015f9055600582015f9055600682015f6101000a81549073ffffffffffffffffffffffffffffffffffffffff0219169055505061099133825f5f9054906101000a900473ffffffffffffffffffffffffffffffffffffffff1673ffffffffffffffffffffffffffffffffffffffff166119e59092919063ffffffff16565b5f82146109e4576109e333835f5f9054906101000a900473ffffffffffffffffffffffffffffffffffffffff1673ffffffffffffffffffffffffffffffffffffffff166119e59092919063ffffffff16565b5b3373ffffffffffffffffffffffffffffffffffffffff16877fffdaf13b1d96bfc2213355f353f84c19493e0681eb0df26f83d862acd266750a8385604051610a2d9291906130e6565b60405180910390a3505050505050610a43611a38565b50565b610a4e611a52565b610a56611ad9565b610a5e611b19565b565b5f610a69611b87565b90505f815f0160089054906101000a900460ff161590505f825f015f9054906101000a900467ffffffffffffffff1690505f5f8267ffffffffffffffff16148015610ab15750825b90505f60018367ffffffffffffffff16148015610ae457505f3073ffffffffffffffffffffffffffffffffffffffff163b145b905081158015610af2575080155b15610b29576040517ff92ee8a900000000000000000000000000000000000000000000000000000000815260040160405180910390fd5b6001855f015f6101000a81548167ffffffffffffffff021916908367ffffffffffffffff1602179055508315610b76576001855f0160086101000a81548160ff0219169083151502179055505b610b7f86611b9a565b610b87611bae565b5f73ffffffffffffffffffffffffffffffffffffffff168773ffffffffffffffffffffffffffffffffffffffff1603610bf5576040517f08c379a0000000000000000000000000000000000000000000000000000000008152600401610bec90613157565b60405180910390fd5b865f5f6101000a81548173ffffffffffffffffffffffffffffffffffffffff021916908373ffffffffffffffffffffffffffffffffffffffff1602179055508315610c8e575f855f0160086101000a81548160ff0219169083151502179055507fc7f505b2f371ae2175ee4913f4499e1f2633a7b5936321eed1cdaeb6115181d26001604051610c8591906131c1565b60405180910390a15b50505050505050565b610c9f611bb8565b610ca882611c9e565b610cb28282611ca9565b5050565b5f610cbf611dc7565b7f360894a13ba1a3210667c828492db98dca3e2076cc3735a920a3ca505d382bbc5f1b905090565b5f610cf0611e4e565b905090565b5f5f610cff611ea1565b9050805f015f9054906101000a900460ff1691505090565b610d1f611a52565b610d285f611ec8565b565b5f5f9054906101000a900473ffffffffffffffffffffffffffffffffffffffff1681565b610d56611a52565b6002548410610d9a576040517f08c379a0000000000000000000000000000000000000000000000000000000008152600401610d9190613060565b60405180910390fd5b5f8311610ddc576040517f08c379a0000000000000000000000000000000000000000000000000000000008152600401610dd390613224565b60405180910390fd5b5f8211610e1e576040517f08c379a0000000000000000000000000000000000000000000000000000000008152600401610e159061328c565b60405180910390fd5b6064811115610e62576040517f08c379a0000000000000000000000000000000000000000000000000000000008152600401610e59906132f4565b60405180910390fd5b5f60015f8681526020019081526020015f2090506201518084610e859190612f78565b815f0181905550828160010181905550818160020181905550847f7633c15819b1dcbb44764eef5338b95eb4c1f0c5d8c2ab0fc74f7a93a652dd406201518086610ecf9190612f78565b8585604051610ee093929190613312565b60405180910390a25050505050565b610ef7611a52565b610eff611f99565b565b610f09611a52565b5f8111610f4b576040517f08c379a0000000000000000000000000000000000000000000000000000000008152600401610f4290613391565b60405180910390fd5b610f983330835f5f9054906101000a900473ffffffffffffffffffffffffffffffffffffffff1673ffffffffffffffffffffffffffffffffffffffff16612008909392919063ffffffff16565b50565b5f5f610fa561205d565b9050805f015f9054906101000a900473ffffffffffffffffffffffffffffffffffffffff1691505090565b610fd8611a52565b5f831161101a576040517f08c379a000000000000000000000000000000000000000000000000000000000815260040161101190613224565b60405180910390fd5b5f821161105c576040517f08c379a00000000000000000000000000000000000000000000000000000000081526004016110539061328c565b60405180910390fd5b60648111156110a0576040517f08c379a0000000000000000000000000000000000000000000000000000000008152600401611097906132f4565b60405180910390fd5b5f60025f8154809291906110b3906133af565b919050559050604051806060016040528062015180866110d39190612f78565b81526020018481526020018381525060015f8381526020019081526020015f205f820151815f01556020820151816001015560408201518160020155905050807fd5cf4d8bddc7b89cf28843477eef64f40018706403e0d4247933221052d9082f62015180866111439190612f78565b858560405161115493929190613312565b60405180910390a250505050565b606060055f8373ffffffffffffffffffffffffffffffffffffffff1673ffffffffffffffffffffffffffffffffffffffff1681526020019081526020015f208054806020026020016040519081016040528092919081815260200182805480156111e957602002820191905f5260205f20905b8154815260200190600101908083116111d5575b50505050509050919050565b6040518060400160405280600581526020017f352e302e3000000000000000000000000000000000000000000000000000000081525081565b60605f60055f8473ffffffffffffffffffffffffffffffffffffffff1673ffffffffffffffffffffffffffffffffffffffff1681526020019081526020015f2090505f818054905090505f8167ffffffffffffffff811115611293576112926127f0565b5b6040519080825280602002602001820160405280156112cc57816020015b6112b96125ca565b8152602001906001900390816112b15790505b5090505f5f90505b828110156113cc5760035f8583815481106112f2576112f16133f6565b5b905f5260205f20015481526020019081526020015f206040518060e00160405290815f82015481526020016001820154815260200160028201548152602001600382015481526020016004820154815260200160058201548152602001600682015f9054906101000a900473ffffffffffffffffffffffffffffffffffffffff1673ffffffffffffffffffffffffffffffffffffffff1673ffffffffffffffffffffffffffffffffffffffff16815250508282815181106113b6576113b56133f6565b5b60200260200101819052508060010190506112d4565b50809350505050919050565b6113e06125ca565b5f60035f8481526020019081526020015f206040518060e00160405290815f82015481526020016001820154815260200160028201548152602001600382015481526020016004820154815260200160058201548152602001600682015f9054906101000a900473ffffffffffffffffffffffffffffffffffffffff1673ffffffffffffffffffffffffffffffffffffffff1673ffffffffffffffffffffffffffffffffffffffff168152505090505f73ffffffffffffffffffffffffffffffffffffffff168160c0015173ffffffffffffffffffffffffffffffffffffffff1603611501576040517f08c379a00000000000000000000000000000000000000000000000000000000081526004016114f890612efa565b60405180910390fd5b80915050919050565b611512611889565b61151a6118ca565b600254821061155e576040517f08c379a000000000000000000000000000000000000000000000000000000000815260040161155590613060565b60405180910390fd5b5f81116115a0576040517f08c379a000000000000000000000000000000000000000000000000000000000815260040161159790613391565b60405180910390fd5b5f60015f8481526020019081526020015f206040518060600160405290815f82015481526020016001820154815260200160028201548152505090506116293330845f5f9054906101000a900473ffffffffffffffffffffffffffffffffffffffff1673ffffffffffffffffffffffffffffffffffffffff16612008909392919063ffffffff16565b5f60045f81548092919061163c906133af565b9190505590505f4290506040518060e001604052808681526020018581526020018460200151815260200184604001518152602001828152602001845f0151836116869190613423565b81526020013373ffffffffffffffffffffffffffffffffffffffff1681525060035f8481526020019081526020015f205f820151815f01556020820151816001015560408201518160020155606082015181600301556080820151816004015560a0820151816005015560c0820151816006015f6101000a81548173ffffffffffffffffffffffffffffffffffffffff021916908373ffffffffffffffffffffffffffffffffffffffff16021790555090505060055f3373ffffffffffffffffffffffffffffffffffffffff1673ffffffffffffffffffffffffffffffffffffffff1681526020019081526020015f2082908060018154018082558091505060019003905f5260205f20015f9091909190915055843373ffffffffffffffffffffffffffffffffffffffff16837f69a1d0432f4a1029eabcc9883ab68c8ff65c32660d81a06509e4888fab3ab83b87876020015188604001516040516117ee93929190613312565b60405180910390a4505050611801611a38565b5050565b61180d611a52565b5f73ffffffffffffffffffffffffffffffffffffffff168173ffffffffffffffffffffffffffffffffffffffff160361187d575f6040517f1e4fbdf700000000000000000000000000000000000000000000000000000000815260040161187491906129ae565b60405180910390fd5b61188681611ec8565b50565b611891610cf5565b156118c8576040517fd93c066500000000000000000000000000000000000000000000000000000000815260040160405180910390fd5b565b6118d2612084565b60026118e46118df6120c5565b6120ee565b5f0181905550565b5f60055f8473ffffffffffffffffffffffffffffffffffffffff1673ffffffffffffffffffffffffffffffffffffffff1681526020019081526020015f2090505f818054905090505f5f90505b818110156119de5783838281548110611955576119546133f6565b5b905f5260205f200154036119d357826001836119719190612f45565b81548110611982576119816133f6565b5b905f5260205f20015483828154811061199e5761199d6133f6565b5b905f5260205f200181905550828054806119bb576119ba613456565b5b600190038181905f5260205f20015f905590556119de565b806001019050611939565b5050505050565b6119f283838360016120f7565b611a3357826040517f5274afe7000000000000000000000000000000000000000000000000000000008152600401611a2a91906129ae565b60405180910390fd5b505050565b6001611a4a611a456120c5565b6120ee565b5f0181905550565b611a5a612159565b73ffffffffffffffffffffffffffffffffffffffff16611a78610f9b565b73ffffffffffffffffffffffffffffffffffffffff1614611ad757611a9b612159565b6040517f118cdaa7000000000000000000000000000000000000000000000000000000008152600401611ace91906129ae565b60405180910390fd5b565b611ae1610cf5565b611b17576040517f8dfc202b00000000000000000000000000000000000000000000000000000000815260040160405180910390fd5b565b611b21611ad9565b5f611b2a611ea1565b90505f815f015f6101000a81548160ff0219169083151502179055507f5db9ee0a495bf2e6ff9c91a7834c1ba4fdd244a5e8aa4e537bd38aeae4b073aa611b6f612159565b604051611b7c91906129ae565b60405180910390a150565b5f5f611b91612160565b90508091505090565b611ba2612189565b611bab816121c9565b50565b611bb6612189565b565b7f000000000000000000000000000000000000000000000000000000000000000073ffffffffffffffffffffffffffffffffffffffff163073ffffffffffffffffffffffffffffffffffffffff161480611c6557507f000000000000000000000000000000000000000000000000000000000000000073ffffffffffffffffffffffffffffffffffffffff16611c4c611e4e565b73ffffffffffffffffffffffffffffffffffffffff1614155b15611c9c576040517fe07c8dba00000000000000000000000000000000000000000000000000000000815260040160405180910390fd5b565b611ca6611a52565b50565b8173ffffffffffffffffffffffffffffffffffffffff166352d1902d6040518163ffffffff1660e01b8152600401602060405180830381865afa925050508015611d1157506040513d601f19601f82011682018060405250810190611d0e91906134ad565b60015b611d5257816040517f4c9c8ce3000000000000000000000000000000000000000000000000000000008152600401611d4991906129ae565b60405180910390fd5b7f360894a13ba1a3210667c828492db98dca3e2076cc3735a920a3ca505d382bbc5f1b8114611db857806040517faa1d49a4000000000000000000000000000000000000000000000000000000008152600401611daf9190612986565b60405180910390fd5b611dc2838361224d565b505050565b7f000000000000000000000000000000000000000000000000000000000000000073ffffffffffffffffffffffffffffffffffffffff163073ffffffffffffffffffffffffffffffffffffffff1614611e4c576040517fe07c8dba00000000000000000000000000000000000000000000000000000000815260040160405180910390fd5b565b5f611e7a7f360894a13ba1a3210667c828492db98dca3e2076cc3735a920a3ca505d382bbc5f1b6122bf565b5f015f9054906101000a900473ffffffffffffffffffffffffffffffffffffffff16905090565b5f7fcd5ed15c6e187e77e9aee88184c21f4f2182ab5827cb3b7e07fbedcd63f03300905090565b5f611ed161205d565b90505f815f015f9054906101000a900473ffffffffffffffffffffffffffffffffffffffff16905082825f015f6101000a81548173ffffffffffffffffffffffffffffffffffffffff021916908373ffffffffffffffffffffffffffffffffffffffff1602179055508273ffffffffffffffffffffffffffffffffffffffff168173ffffffffffffffffffffffffffffffffffffffff167f8be0079c531659141344cd1fd0a4f28419497f9722a3daafe3b4186f6b6457e060405160405180910390a3505050565b611fa1611889565b5f611faa611ea1565b90506001815f015f6101000a81548160ff0219169083151502179055507f62e78cea01bee320cd4e420270b5ea74000d11b0c9f74754ebdbfc544b05a258611ff0612159565b604051611ffd91906129ae565b60405180910390a150565b6120168484848460016122c8565b61205757836040517f5274afe700000000000000000000000000000000000000000000000000000000815260040161204e91906129ae565b60405180910390fd5b50505050565b5f7f9016d09d72d40fdae2fd8ceac6b6234c7706214fd39c1cd1e609a0528c199300905090565b61208c612339565b156120c3576040517f3ee5aeb500000000000000000000000000000000000000000000000000000000815260040160405180910390fd5b565b5f7f9b779b17422d0df92223018b32b4d1fa46e071723d6817e2486d003becc55f005f1b905090565b5f819050919050565b5f5f63a9059cbb60e01b9050604051815f525f1960601c86166004528460245260205f60445f5f8b5af1925060015f5114831661214b57838315161561213f573d5f823e3d81fd5b5f873b113d1516831692505b806040525050949350505050565b5f33905090565b5f7ff0c57e16840df040f15088dc2f81fe391c3923bec73e23a9662efc9c229c6a005f1b905090565b612191612355565b6121c7576040517fd7e6bcf800000000000000000000000000000000000000000000000000000000815260040160405180910390fd5b565b6121d1612189565b5f73ffffffffffffffffffffffffffffffffffffffff168173ffffffffffffffffffffffffffffffffffffffff1603612241575f6040517f1e4fbdf700000000000000000000000000000000000000000000000000000000815260040161223891906129ae565b60405180910390fd5b61224a81611ec8565b50565b61225682612373565b8173ffffffffffffffffffffffffffffffffffffffff167fbc7cd75a20ee27fd9adebab32041f755214dbc6bffa90cc0225b39da2e5c2d3b60405160405180910390a25f815111156122b2576122ac828261243c565b506122bb565b6122ba61252d565b5b5050565b5f819050919050565b5f5f6323b872dd60e01b9050604051815f525f1960601c87166004525f1960601c86166024528460445260205f60645f5f8c5af1925060015f5114831661232657838315161561231a573d5f823e3d81fd5b5f883b113d1516831692505b806040525f606052505095945050505050565b5f600261234c6123476120c5565b6120ee565b5f015414905090565b5f61235e611b87565b5f0160089054906101000a900460ff16905090565b5f8173ffffffffffffffffffffffffffffffffffffffff163b036123ce57806040517f4c9c8ce30000000000000000000000000000000000000000000000000000000081526004016123c591906129ae565b60405180910390fd5b806123fa7f360894a13ba1a3210667c828492db98dca3e2076cc3735a920a3ca505d382bbc5f1b6122bf565b5f015f6101000a81548173ffffffffffffffffffffffffffffffffffffffff021916908373ffffffffffffffffffffffffffffffffffffffff16021790555050565b60605f6124498484612569565b905080801561247f57505f61245c61257d565b118061247e57505f8473ffffffffffffffffffffffffffffffffffffffff163b115b5b156124945761248c612584565b915050612527565b80156124d757836040517f9996b3150000000000000000000000000000000000000000000000000000000081526004016124ce91906129ae565b60405180910390fd5b5f6124e061257d565b11156124f3576124ee6125a1565b612525565b6040517fd6bda27500000000000000000000000000000000000000000000000000000000815260040160405180910390fd5b505b92915050565b5f341115612567576040517fb398979f00000000000000000000000000000000000000000000000000000000815260040160405180910390fd5b565b5f5f5f835160208501865af4905092915050565b5f3d905090565b606060405190503d81523d5f602083013e3d602001810160405290565b6040513d5f823e3d81fd5b60405180606001604052805f81526020015f81526020015f81525090565b6040518060e001604052805f81526020015f81526020015f81526020015f81526020015f81526020015f81526020015f73ffffffffffffffffffffffffffffffffffffffff1681525090565b5f604051905090565b5f5ffd5b5f5ffd5b5f73ffffffffffffffffffffffffffffffffffffffff82169050919050565b5f61265082612627565b9050919050565b61266081612646565b811461266a575f5ffd5b50565b5f8135905061267b81612657565b92915050565b5f602082840312156126965761269561261f565b5b5f6126a38482850161266d565b91505092915050565b5f819050919050565b6126be816126ac565b82525050565b5f6020820190506126d75f8301846126b5565b92915050565b6126e6816126ac565b81146126f0575f5ffd5b50565b5f81359050612701816126dd565b92915050565b5f6020828403121561271c5761271b61261f565b5b5f612729848285016126f3565b91505092915050565b61273b816126ac565b82525050565b606082015f8201516127555f850182612732565b5060208201516127686020850182612732565b50604082015161277b6040850182612732565b50505050565b5f6060820190506127945f830184612741565b92915050565b5f5f604083850312156127b0576127af61261f565b5b5f6127bd8582860161266d565b92505060206127ce8582860161266d565b9150509250929050565b5f5ffd5b5f5ffd5b5f601f19601f8301169050919050565b7f4e487b71000000000000000000000000000000000000000000000000000000005f52604160045260245ffd5b612826826127e0565b810181811067ffffffffffffffff82111715612845576128446127f0565b5b80604052505050565b5f612857612616565b9050612863828261281d565b919050565b5f67ffffffffffffffff821115612882576128816127f0565b5b61288b826127e0565b9050602081019050919050565b828183375f83830152505050565b5f6128b86128b384612868565b61284e565b9050828152602081018484840111156128d4576128d36127dc565b5b6128df848285612898565b509392505050565b5f82601f8301126128fb576128fa6127d8565b5b813561290b8482602086016128a6565b91505092915050565b5f5f6040838503121561292a5761292961261f565b5b5f6129378582860161266d565b925050602083013567ffffffffffffffff81111561295857612957612623565b5b612964858286016128e7565b9150509250929050565b5f819050919050565b6129808161296e565b82525050565b5f6020820190506129995f830184612977565b92915050565b6129a881612646565b82525050565b5f6020820190506129c15f83018461299f565b92915050565b5f8115159050919050565b6129db816129c7565b82525050565b5f6020820190506129f45f8301846129d2565b92915050565b5f819050919050565b5f612a1d612a18612a1384612627565b6129fa565b612627565b9050919050565b5f612a2e82612a03565b9050919050565b5f612a3f82612a24565b9050919050565b612a4f81612a35565b82525050565b5f602082019050612a685f830184612a46565b92915050565b5f5f5f5f60808587031215612a8657612a8561261f565b5b5f612a93878288016126f3565b9450506020612aa4878288016126f3565b9350506040612ab5878288016126f3565b9250506060612ac6878288016126f3565b91505092959194509250565b5f5f5f60608486031215612ae957612ae861261f565b5b5f612af6868287016126f3565b9350506020612b07868287016126f3565b9250506040612b18868287016126f3565b9150509250925092565b5f81519050919050565b5f82825260208201905092915050565b5f819050602082019050919050565b5f612b568383612732565b60208301905092915050565b5f602082019050919050565b5f612b7882612b22565b612b828185612b2c565b9350612b8d83612b3c565b805f5b83811015612bbd578151612ba48882612b4b565b9750612baf83612b62565b925050600181019050612b90565b5085935050505092915050565b5f6020820190508181035f830152612be28184612b6e565b905092915050565b5f81519050919050565b5f82825260208201905092915050565b8281835e5f83830152505050565b5f612c1c82612bea565b612c268185612bf4565b9350612c36818560208601612c04565b612c3f816127e0565b840191505092915050565b5f6020820190508181035f830152612c628184612c12565b905092915050565b5f81519050919050565b5f82825260208201905092915050565b5f819050602082019050919050565b612c9c81612646565b82525050565b60e082015f820151612cb65f850182612732565b506020820151612cc96020850182612732565b506040820151612cdc6040850182612732565b506060820151612cef6060850182612732565b506080820151612d026080850182612732565b5060a0820151612d1560a0850182612732565b5060c0820151612d2860c0850182612c93565b50505050565b5f612d398383612ca2565b60e08301905092915050565b5f602082019050919050565b5f612d5b82612c6a565b612d658185612c74565b9350612d7083612c84565b805f5b83811015612da0578151612d878882612d2e565b9750612d9283612d45565b925050600181019050612d73565b5085935050505092915050565b5f6020820190508181035f830152612dc58184612d51565b905092915050565b60e082015f820151612de15f850182612732565b506020820151612df46020850182612732565b506040820151612e076040850182612732565b506060820151612e1a6060850182612732565b506080820151612e2d6080850182612732565b5060a0820151612e4060a0850182612732565b5060c0820151612e5360c0850182612c93565b50505050565b5f60e082019050612e6c5f830184612dcd565b92915050565b5f5f60408385031215612e8857612e8761261f565b5b5f612e95858286016126f3565b9250506020612ea6858286016126f3565b9150509250929050565b7f5374616b65206e6f7420666f756e6400000000000000000000000000000000005f82015250565b5f612ee4600f83612bf4565b9150612eef82612eb0565b602082019050919050565b5f6020820190508181035f830152612f1181612ed8565b9050919050565b7f4e487b71000000000000000000000000000000000000000000000000000000005f52601160045260245ffd5b5f612f4f826126ac565b9150612f5a836126ac565b9250828203905081811115612f7257612f71612f18565b5b92915050565b5f612f82826126ac565b9150612f8d836126ac565b9250828202612f9b816126ac565b91508282048414831517612fb257612fb1612f18565b5b5092915050565b7f4e487b71000000000000000000000000000000000000000000000000000000005f52601260045260245ffd5b5f612ff0826126ac565b9150612ffb836126ac565b92508261300b5761300a612fb9565b5b828204905092915050565b7f506c616e206e6f7420666f756e640000000000000000000000000000000000005f82015250565b5f61304a600e83612bf4565b915061305582613016565b602082019050919050565b5f6020820190508181035f8301526130778161303e565b9050919050565b7f4e6f74207374616b6572000000000000000000000000000000000000000000005f82015250565b5f6130b2600a83612bf4565b91506130bd8261307e565b602082019050919050565b5f6020820190508181035f8301526130df816130a6565b9050919050565b5f6040820190506130f95f8301856126b5565b61310660208301846126b5565b9392505050565b7f5a65726f20746f6b656e000000000000000000000000000000000000000000005f82015250565b5f613141600a83612bf4565b915061314c8261310d565b602082019050919050565b5f6020820190508181035f83015261316e81613135565b9050919050565b5f819050919050565b5f67ffffffffffffffff82169050919050565b5f6131ab6131a66131a184613175565b6129fa565b61317e565b9050919050565b6131bb81613191565b82525050565b5f6020820190506131d45f8301846131b2565b92915050565b7f506572696f64206d757374206265203e203000000000000000000000000000005f82015250565b5f61320e601283612bf4565b9150613219826131da565b602082019050919050565b5f6020820190508181035f83015261323b81613202565b9050919050565b7f415052206d757374206265203e203000000000000000000000000000000000005f82015250565b5f613276600f83612bf4565b915061328182613242565b602082019050919050565b5f6020820190508181035f8301526132a38161326a565b9050919050565b7f50656e616c74792063616e6e6f742065786365656420313030000000000000005f82015250565b5f6132de601983612bf4565b91506132e9826132aa565b602082019050919050565b5f6020820190508181035f83015261330b816132d2565b9050919050565b5f6060820190506133255f8301866126b5565b61333260208301856126b5565b61333f60408301846126b5565b949350505050565b7f416d6f756e74206d757374206265203e203000000000000000000000000000005f82015250565b5f61337b601283612bf4565b915061338682613347565b602082019050919050565b5f6020820190508181035f8301526133a88161336f565b9050919050565b5f6133b9826126ac565b91507fffffffffffffffffffffffffffffffffffffffffffffffffffffffffffffffff82036133eb576133ea612f18565b5b600182019050919050565b7f4e487b71000000000000000000000000000000000000000000000000000000005f52603260045260245ffd5b5f61342d826126ac565b9150613438836126ac565b92508282019050808211156134505761344f612f18565b5b92915050565b7f4e487b71000000000000000000000000000000000000000000000000000000005f52603160045260245ffd5b61348c8161296e565b8114613496575f5ffd5b50565b5f815190506134a781613483565b92915050565b5f602082840312156134c2576134c161261f565b5b5f6134cf84828501613499565b9150509291505056fea26469706673582212202160d63da88d4624c2786b4312944984f5027b12376ae3948df7abfa0de2f68c64736f6c634300081c0033",
    "linkReferences": {},
    "deployedLinkReferences": {},
    "immutableReferences": {
        "1113": [
            {
                "length": 32,
                "start": 7098
            },
            {
                "length": 32,
                "start": 7183
            },
            {
                "length": 32,
                "start": 7625
            }
        ]
    },
    "inputSourceName": "project/contracts/StakingContract.sol",
    "buildInfoId": "solc-0_8_28-7f15c724b7ae36e13646cb644b5f964158b170b3"
}